:020000040800F2
:10000000002800209D1200082D120008331200085D
:10001000391200083F1200084512000800000000D5
:100020000000000000000000000000004B1200086B
:100030005712000800000000631200086F12000849
:10004000E5120008E5120008E5120008E5120008B4
:10005000E5120008E5120008E5120008E5120008A4
:10006000E5120008E5120008E5120008E512000894
:10007000E5120008E5120008E5120008E512000884
:10008000E5120008E5120008E5120008E512000874
:10009000E5120008E5120008E5120008E512000864
:1000A000E5120008E5120008E5120008E512000854
:1000B0007D120008E512000800000000E5120008AB
:1000C000E51200080000000000000000E512000832
:1000D00000000000E5120008E51200080000000022
:1000E000E5120008E5120008E51200080000000013
:1000F0000000000000000000000000000000000000
:0C01000000000000000000005FF808F1A3
:10010C0010B5054C237833B9044B13B10448AFF345
:10011C0000800123237010BD0C00002000000000A3
:10012C000029000808B5034B1BB103490348AFF382
:10013C00008008BD0000000010000020002900080D
:10014C0080B582B000AF7860C7F800C001220121F1
:10015C009F4801F0ADFB012202219D4801F0A8FB54
:10016C00012204219A4801F0A3FB01224021984866
:10017C0001F09EFB01221021954801F099FB012210
:10018C000821934801F094FB01222021904801F0B2
:10019C008FFB7B68092B00F2168101A252F823F029
:1001AC00D501000813020008290200085D020008AE
:1001BC0091020008BB020008EF0200082D030008A2
:1001CC004D0300089503000800220121804801F02E
:1001DC006FFB002202217E4801F06AFB0022042101
:1001EC007B4801F065FB00221021794801F060FB8F
:1001FC0000220821764801F05BFB00222021744884
:10020C0001F056FBDFE000220221714801F050FBA7
:10021C00002204216E4801F04BFBD4E000220121A6
:10022C006B4801F045FB00220221694801F040FBBC
:10023C0000224021664801F03BFB0022102164485B
:10024C0001F036FB00220821614801F031FBBAE0D5
:10025C00002201215E4801F02BFB002202215C48A8
:10026C0001F026FB00224021594801F021FB00221D
:10027C000421574801F01CFB00220821544801F0CE
:10028C0017FBA0E000222021514801F011FB0022B5
:10029C0002214F4801F00CFB002240214C4801F098
:1002AC0007FB002204214A4801F002FB8BE00022EC
:1002BC000121474801F0FCFA00222021444801F0BA
:1002CC00F7FA00224021424801F0F2FA0022042100
:1002DC003F4801F0EDFA002208213D4801F0E8FA10
:1002EC0071E0002201213A4801F0E2FA00222021BB
:1002FC00374801F0DDFA00224021354801F0D8FAE8
:10030C0000221021324801F0D3FA00220421304897
:10031C0001F0CEFA002208212D4801F0C9FA52E072
:10032C00002201212A4801F0C3FA002202212848A8
:10033C0001F0BEFA00220421254801F0B9FA42E08E
:10034C0000220121224801F0B3FA002202212048A8
:10035C0001F0AEFA002204211D4801F0A9FA002296
:10036C0040211B4801F0A4FA00221021184801F08A
:10037C009FFA00220821164801F09AFA0022202147
:10038C00134801F095FA1EE000220121104801F0FB
:10039C008FFA002202210E4801F08AFA0022042171
:1003AC000B4801F085FA00224021094801F080FA3F
:1003BC0000220821064801F07BFA00222021044883
:1003CC0001F076FA00BF00BF0837BD4680BD00BF04
:1003DC00000C014090B58FB000AF07F14803BB6132
:1003EC0000F07CFF00F032FD00F0B8FD00F06AFD7B
:1003FC00444801F0BBFE04233B6200237B63424B69
:10040C003C460FCB84E80F000823FB6100233B63C1
:10041C003E4A07F1100392E8030083E803000F2320
:10042C00FB620823BB6232237B62642000F0FCFD7C
:10043C00FA2000F00DFE642000F01EFE142000F0E7
:10044C002FFE334B1B68012B20D17B6A3B2B04DD29
:10045C0000237B62BB6A0133BB62BB6A3B2B04DDAE
:10046C000023BB62FB6A0133FB62FB6A172B01DDC5
:10047C000023FB627B6A01337B623B469C46B96A74
:10048C00F86A00F0E5F8642000F0CEFD214B1B6803
:10049C00012B11D13B469C46786B00F043F87B6BEB
:1004AC0001337B637A6B3B6A9A4201DB00237B63EB
:1004BC004FF4967000F0CCFD174B1B68012B0AD142
:1004CC001021164801F00CFA2021144801F008FA0A
:1004DC00642000F0D1FD124B1B68012BB1D13B46BF
:1004EC009C46386B00F0EEF83B6B01333B633A6B88
:1004FC00FB699A4201DB00233B63142000F0D0FD22
:10050C009FE700BF48000020182900082829000890
:10051C002C000020340000203C000020000801408A
:10052C004400002090B583B000AF78606446C7F8F3
:10053C0000C07B68032B00F2838001A252F823F0E9
:10054C005D05000899050008D5050008110600088E
:10055C00002240213D4801F0ABF9012280213B48AB
:10056C0001F0A6F901224FF48071384801F0A0F98E
:10057C0001224FF40071354801F09AF97B6854F868
:10058C002330A4461846FFF7DBFD5AE00122402138
:10059C002E4801F08DF9002280212C4801F088F9B9
:1005AC0001224FF48071294801F082F901224FF4A5
:1005BC000071264801F07CF97B6854F82330A4467E
:1005CC001846FFF7BDFD3CE0012240211F4801F019
:1005DC006FF9012280211D4801F06AF900224FF4C5
:1005EC0080711A4801F064F901224FF40071174828
:1005FC0001F05EF97B6854F82330A4461846FFF7E7
:10060C009FFD1EE001224021104801F051F901220A
:10061C0080210E4801F04CF901224FF480710B48F7
:10062C0001F046F900224FF40071084801F040F93E
:10063C007B6854F82330A4461846FFF781FD00E090
:10064C0000BF00BF0C37BD4690BD00BF0008014085
:10065C0080B485B000AFF860B9606246C7F804C0DA
:10066C00FB68174981FB03018910DB17CB1A136058
:10067C00F868134B83FB00139910C317C91A0B4668
:10068C009B000B445B00C11A5160BB680C4981FB99
:10069C0003018910DB17CB1A9360B868084B83FBF6
:1006AC0000139910C317C91A0B469B000B445B002F
:1006BC00C11AD16000BF1437BD4680BC704700BF63
:1006CC006766666690B583B000AF78606446C7F81D
:1006DC0000C07B68072B00F2AF8301A252F823F015
:1006EC000D070008F3070008D5080008C109000829
:1006FC00A30A0008890B0008750C00085B0D0008A4
:10070C0000224FF40041A94801F0D2F8237C03F0F9
:10071C000103DBB21A460421A54801F0C9F8637C39
:10072C005B10DBB203F00103DBB21A460821A048D0
:10073C0001F0BEF8A37C03F00303002B14BF0123CC
:10074C000023DBB21A464FF48061994801F0B0F8EF
:10075C00E37C9B10DBB203F00103DBB21A464FF4CF
:10076C000061934801F0A4F8237D03F00503002BEE
:10077C0014BF01230023DBB21A464FF480518C487E
:10078C0001F096F8637D03F00603002B14BF0123E0
:10079C000023DBB21A464FF40051854801F088F86B
:1007AC00A37D03F00703002B14BF01230023DBB24E
:1007BC001A464FF480417E4801F07AF8E37D03F04D
:1007CC000803002B0CBF01230023DBB21A464FF4A5
:1007DC000041774801F06CF800224FF480717348A7
:1007EC0001F066F829E300224FF480416F4801F0D4
:1007FC005FF8237C03F00103DBB21A4604216C483A
:10080C0001F056F8637C5B10DBB203F00103DBB242
:10081C001A460821664801F04BF8A37C03F0030349
:10082C00002B14BF01230023DBB21A464FF4806166
:10083C005F4801F03DF8E37C9B10DBB203F0010351
:10084C00DBB21A464FF40061594801F031F8237DB0
:10085C0003F00503002B14BF01230023DBB21A465F
:10086C004FF48051524801F023F8637D03F00603E6
:10087C00002B14BF01230023DBB21A464FF40051A6
:10088C004B4801F015F8A37D03F00703002B0CBFB8
:10089C0001230023DBB21A464FF48041444801F097
:1008AC0007F8E37DDB10DBB203F00103DBB21A4681
:1008BC004FF400413E4800F0FBFF00224FF4004192
:1008CC003A4800F0F5FFB8E200224FF400513748E7
:1008DC0000F0EEFF237C03F00103DBB21A46042187
:1008EC00334800F0E5FF637C5B10DBB203F00103DF
:1008FC00DBB21A4608212E4800F0DAFFA37C03F085
:10090C000303002B14BF01230023DBB21A464FF460
:10091C008061274800F0CCFFE37C9B10DBB203F036
:10092C000103DBB21A464FF40061214800F0C0FF0E
:10093C00237D03F00503002B14BF01230023DBB23E
:10094C001A464FF480511A4800F0B2FF637D03F051
:10095C000603002B0CBF01230023DBB21A464FF415
:10096C000051134800F0A4FFA37D03F00703002BF4
:10097C0014BF01230023DBB21A464FF480410C480C
:10098C0000F096FFE37DDB10DBB203F00103DBB27A
:10099C001A464FF40041064800F08AFF00224FF43B
:1009AC008041024800F084FF47E200BF000C014088
:1009BC000008014000224FF48051A94800F078FF54
:1009CC00237C03F00103DBB21A460421A54800F096
:1009DC006FFF637C5B10DBB203F00103DBB21A46E2
:1009EC000821A04800F064FFA37C03F00303002B54
:1009FC0014BF01230023DBB21A464FF480619948DF
:100A0C0000F056FFE37C9B10DBB203F00103DBB27A
:100A1C001A464FF40061934800F04AFF237D03F01F
:100A2C000503002B0CBF01230023DBB21A464FF445
:100A3C0080518C4800F03CFF637D03F00603002BD3
:100A4C0014BF01230023DBB21A464FF40051854832
:100A5C0000F02EFFA37D03F00703002B14BF01232E
:100A6C000023DBB21A464FF480417E4800F020FF91
:100A7C00E37DDB10DBB203F00103DBB21A464FF46B
:100A8C000041784800F014FF00224FF400517448E4
:100A9C0000F00EFFD1E100224FF40061704800F02D
:100AAC0007FF237C03F00103DBB21A4604216D48D7
:100ABC0000F0FEFE637C5B10DBB203F00103DBB2E3
:100ACC001A460821674800F0F3FEA37C03F00303E9
:100ADC00002B14BF01230023DBB21A464FF48061B4
:100AEC00604800F0E5FEE37C03F00403002B0CBF30
:100AFC0001230023DBB21A464FF40061594800F081
:100B0C00D7FE237D03F00503002B14BF0123002324
:100B1C00DBB21A464FF48051524800F0C9FE637D97
:100B2C0003F00603002B14BF01230023DBB21A468B
:100B3C004FF400514B4800F0BBFEA37D03F00703BC
:100B4C00002B14BF01230023DBB21A464FF4804163
:100B5C00444800F0ADFEE37DDB10DBB203F0010393
:100B6C00DBB21A464FF400413E4800F0A1FE0022D1
:100B7C004FF480513A4800F09BFE5EE100224FF4A6
:100B8C008061374800F094FE237C03F00103DBB254
:100B9C001A460421334800F08BFE637C5B10DBB2F9
:100BAC0003F00103DBB21A4608212E4800F080FE48
:100BBC00A37C03F00303002B0CBF01230023DBB247
:100BCC001A464FF48061274800F072FEE37C9B10BC
:100BDC00DBB203F00103DBB21A464FF4006121488B
:100BEC0000F066FE237D03F00503002B14BF0123E8
:100BFC000023DBB21A464FF480511A4800F058FE1D
:100C0C00637D03F00603002B14BF01230023DBB22A
:100C1C001A464FF40051134800F04AFEA37D03F02E
:100C2C000703002B14BF01230023DBB21A464FF439
:100C3C0080410C4800F03CFEE37DDB10DBB203F09E
:100C4C000103DBB21A464FF40041064800F030FEB7
:100C5C0000224FF40061024800F02AFEEDE000BFD4
:100C6C00000C01400008014000224FF4007175484F
:100C7C0000F01EFE237C03F00103DBB21A460421B4
:100C8C00714800F015FE637C03F00203002B0CBFCF
:100C9C0001230023DBB21A4608216B4800F008FE42
:100CAC00A37C03F00303002B14BF01230023DBB24E
:100CBC001A464FF48061644800F0FAFDE37C9B1007
:100CCC00DBB203F00103DBB21A464FF400615E485D
:100CDC0000F0EEFD237D03F00503002B14BF012370
:100CEC000023DBB21A464FF48051574800F0E0FD68
:100CFC00637D03F00603002B14BF01230023DBB23A
:100D0C001A464FF40051504800F0D2FDA37D03F079
:100D1C000703002B14BF01230023DBB21A464FF448
:100D2C008041494800F0C4FDE37DDB10DBB203F0E9
:100D3C000103DBB21A464FF40041434800F0B8FD02
:100D4C0000224FF480613F4800F0B2FD75E00022B4
:100D5C004FF480713B4800F0ABFD237C03F00103A2
:100D6C00002B0CBF01230023DBB21A4604213648AA
:100D7C0000F09EFD637C5B10DBB203F00103DBB281
:100D8C001A460821304800F093FDA37C03F00303BE
:100D9C00002B14BF01230023DBB21A464FF48061F1
:100DAC00294800F085FDE37C9B10DBB203F00103C6
:100DBC00DBB21A464FF40061234800F079FD237D25
:100DCC0003F00503002B14BF01230023DBB21A46EA
:100DDC004FF480511C4800F06BFD637D03F006035B
:100DEC00002B14BF01230023DBB21A464FF4005131
:100DFC00154800F05DFDA37D03F00703002B14BF25
:100E0C0001230023DBB21A464FF480410E4800F058
:100E1C004FFDE37DDB10DBB203F00103DBB21A46BE
:100E2C004FF40041084800F043FD00224FF40071DC
:100E3C00044800F03DFD00E000BF00BF0C37BD468C
:100E4C0090BD00BF000C01400008014080B590B07F
:100E5C0000AF07F1180328220021184601F042FDCB
:100E6C003B1D00221A605A609A60DA601A610223F4
:100E7C00BB610123BB621023FB6200237B6307F180
:100E8C001803184600F046FD0346002B01D000F075
:100E9C00C5F80F237B600023BB600023FB6000239D
:100EAC003B6100237B613B1D0021184600F0B2FF23
:100EBC000346002B01D000F0B1F800BF4037BD460F
:100ECC0080BD000080B586B000AF07F1080300229A
:100EDC001A605A609A60DA603B4600221A605A60C7
:100EEC001D4B4FF080421A601B4B41F63F725A600B
:100EFC00194B00229A60184B0922DA60164B00221B
:100F0C001A61154B00229A61134801F0DFF8034671
:100F1C00002B01D000F082F84FF48053BB6007F136
:100F2C00080319460C4801F075FA0346002B01D052
:100F3C0000F074F800233B6000237B603B461946AD
:100F4C00054801F041FC0346002B01D000F066F887
:100F5C0000BF1837BD4680BD4800002080B586B064
:100F6C0000AF07F1080300221A605A609A60DA6039
:100F7C00224B9B69214A43F0040393611F4B9B69ED
:100F8C0003F004037B607B681C4B9B691B4A43F09A
:100F9C0008039361194B9B6903F008033B603B68A2
:100FAC0000224FF6FC71164800F082FC00224FF62E
:100FBC007F71144800F07CFC4FF6FC73BB6001237E
:100FCC00FB6000233B6102237B6107F10803194698
:100FDC000B4800F0F3FA4FF67F73BB600123FB6004
:100FEC0000233B6102237B6107F108031946054886
:100FFC0000F0E4FA00BF1837BD4680BD0010024077
:10100C0000080140000C014080B582B000AF786050
:10101C0000F05AF800BF0837BD4680BD80B400AF61
:10102C0072B600BFFEE7000080B483B000AF7860FA
:10103C00054A7B681360054B00221A6000BF0C3711
:10104C00BD4680BC704700BF280000202C0000204B
:10105C0080B483B000AF7860054A7B681360054BA1
:10106C0000221A6000BF0C37BD4680BC704700BF21
:10107C00300000203400002080B483B000AF7860D2
:10108C00054A7B681360054B00221A6000BF0C37C1
:10109C00BD4680BC704700BF380000203C000020DB
:1010AC0080B483B000AF7860054A7B681360054B51
:1010BC0000221A6000BF0C37BD4680BC704700BFD1
:1010CC00400000204400002080B400AF214B1B687E
:1010DC00002B0BDD1F4B1B68013B1E4A13601D4B85
:1010EC001B68002B02DC1C4B01221A601B4B1B687B
:1010FC00002B0BDD194B1B68013B184A1360174B77
:10110C001B68002B02DC164B01221A60154B1B6866
:10111C00002B0BDD134B1B68013B124A1360114B68
:10112C001B68002B02DC104B01221A600F4B1B6852
:10113C00002B0BDD0D4B1B68013B0C4A13600B4B5A
:10114C001B68002B02DC0A4B01221A6000BFBD4653
:10115C0080BC7047280000202C00002030000020AC
:10116C0034000020380000203C000020400000200B
:10117C004400002080B485B000AF154B9B69144A25
:10118C0043F001039361124B9B6903F00103BB60B5
:10119C00BB680F4BDB690E4A43F08053D3610C4B99
:1011AC00DB6903F080537B607B680A4B5B68FB60F8
:1011BC00FB6823F0E063FB60FB6843F08063FB603B
:1011CC00044AFB68536000BF1437BD4680BC7047AF
:1011DC00001002400000014080B584B000AF786080
:1011EC007B681B68B3F1804F13D10C4BDB690B4A46
:1011FC0043F00103D361094BDB6903F00103FB608E
:10120C00FB68002200211C2000F0A1F91C2000F03A
:10121C00BAF900BF1037BD4680BD00BF00100240B8
:10122C0080B400AFFEE780B400AFFEE780B400AF3F
:10123C00FEE780B400AFFEE780B400AFFEE780B4F9
:10124C0000AF00BFBD4680BC704780B400AF00BF8C
:10125C00BD4680BC704780B400AF00BFBD4680BCAB
:10126C00704780B500AF00F07FF800BF80BD000074
:10127C0080B500AF024800F0C5FF00BF80BD00BFC5
:10128C004800002080B400AF00BFBD4680BC704752
:10129C00FFF7F8FF0B480C490C4A002302E0D45826
:1012AC00C4500433C4188C42F9D3094A094C0023A6
:1012BC0001E013600432A242FBD301F0EFFAFFF716
:1012CC0089F87047000000200C0000205C29000801
:1012DC000C00002094000020FEE7000080B500AF59
:1012EC00084B1B68074A43F010031360032000F0FF
:1012FC0023F90F2000F008F8FFF73CFF00231846F5
:10130C0080BD00BF0020024080B582B000AF786085
:10131C00124B1A68124B1B7819464FF47A73B3FBB5
:10132C00F1F3B2FBF3F3184600F03BF90346002B44
:10133C0001D001230EE07B680F2B0AD800227968BC
:10134C004FF0FF3000F003F9064A7B68136000236E
:10135C0000E0012318460837BD4680BD0000002080
:10136C00080000200400002080B400AF054B1B785F
:10137C001A46054B1B681344034A136000BFBD4655
:10138C0080BC7047080000209000002080B400AFA3
:10139C00024B1B681846BD4680BC7047900000206D
:1013AC0080B485B000AF78607B6803F00703FB6006
:1013BC000C4BDB68BB60BA684FF6FF031340BB6095
:1013CC00FB681A02BB68134343F0BF6343F400335A
:1013DC00BB60044ABB68D36000BF1437BD4680BCF9
:1013EC00704700BF00ED00E080B400AF044BDB6839
:1013FC001B0A03F007031846BD4680BC704700BFAC
:10140C0000ED00E080B483B000AF0346FB7197F9A8
:10141C000730002B0BDBFB7903F01F02064997F911
:10142C0007305B09012000FA02F241F8232000BFCB
:10143C000C37BD4680BC704700E100E080B483B03F
:10144C0000AF03463960FB7197F90730002B0ADBBC
:10145C003B68DAB20C4997F907301201D2B20B444F
:10146C0083F800230AE03B68DAB20849FB7903F001
:10147C000F03043B1201D2B20B441A7600BF0C3797
:10148C00BD4680BC704700BF00E100E000ED00E00D
:10149C0080B489B000AFF860B9607A60FB6803F083
:1014AC000703FB61FB69C3F10703042B28BF04236B
:1014BC00BB61FB690433062B02D9FB69033B00E0DB
:1014CC0000237B614FF0FF32BB6902FA03F3DA436E
:1014DC00BB681A407B699A404FF0FF317B6901FA77
:1014EC0003F3D9437B680B40134318462437BD469E
:1014FC0080BC704780B582B000AF78607B68013BE0
:10150C00B3F1807F01D301230FE00A4A7B68013BD2
:10151C0053600F214FF0FF30FFF790FF054B002277
:10152C009A60044B07221A60002318460837BD4600
:10153C0080BD00BF10E000E080B582B000AF7860E5
:10154C007868FFF72DFF00BF0837BD4680BD80B51A
:10155C0086B000AF0346B9607A60FB7300237B61F1
:10156C00FFF742FF78617A68B9687869FFF790FFF6
:10157C00024697F90F3011461846FFF75FFF00BF80
:10158C001837BD4680BD80B582B000AF0346FB71F5
:10159C0097F907301846FFF735FF00BF0837BD46EF
:1015AC0080BD80B582B000AF78607868FFF7A2FF8D
:1015BC00034618460837BD4680BD000080B48BB08A
:1015CC0000AF7860396000237B6200233B6248E106
:1015DC0001227B6A02FA03F3FB613B681B68FA6920
:1015EC001340BB61BA69FB699A4240F037813B6892
:1015FC005B68A34A93425ED0A14A934275D8A14A34
:10160C00934258D09F4A93426FD89F4A934252D0EC
:10161C009D4A934269D89D4A93424CD09B4A93422F
:10162C0063D89B4A934246D0994A93425DD8122B79
:10163C002AD8122B59D801A252F823F0C31600084D
:10164C009D160008AF160008F1160008F7160008E2
:10165C00F7160008F7160008F7160008F71600082A
:10166C00F7160008F7160008F7160008F71600081A
:10167C00F7160008F7160008F7160008F71600080A
:10168C00A5160008B9160008824A934213D02CE024
:10169C003B68DB683B6229E03B68DB6804333B62F8
:1016AC0024E03B68DB6808333B621FE03B68DB6887
:1016BC000C333B621AE03B689B68002B02D104237D
:1016CC003B6213E03B689B68012B05D108233B620E
:1016DC007B68FA691A6109E008233B627B68FA6946
:1016EC005A6103E000233B6200E000BFBB69FF2BA3
:1016FC0001D87B6801E07B6804337B61BB69FF2BFD
:10170C0002D87B6A9B0002E07B6A083B9B003B6132
:10171C007B691A680F213B6901FA03F3DB431A401A
:10172C00396A3B6901FA03F31A437B691A603B6817
:10173C005B6803F08053002B00F09080564B9B6944
:10174C00554A43F001039361534B9B6903F001032A
:10175C00BB60BB68514A7B6A9B08023352F823304A
:10176C00FB607B6A03F003039B000F2202FA03F376
:10177C00DB43FA681340FB607B68494A93420DD007
:10178C007B68484A934207D07B68474A934201D111
:10179C00022304E0032302E0012300E000237A6A21
:1017AC0002F0030292009340FA681343FB603B493A
:1017BC007B6A9B080233FA6841F823203B685B681C
:1017CC0003F48013002B06D0384B9A683749BB6959
:1017DC0013438B6006E0354B9A68BB69DB43334996
:1017EC0013408B603B685B6803F40013002B06D03E
:1017FC002E4BDA682D49BB691343CB6006E02B4BAB
:10180C00DA68BB69DB4329491340CB603B685B68F2
:10181C0003F40033002B06D0244B5A682349BB69D0
:10182C0013434B6006E0214B5A68BB69DB431F49ED
:10183C0013404B603B685B6803F48033002B06D08D
:10184C001A4B1A681949BB6913430B6006E0174B16
:10185C001A68BB69DB43154913400B607B6A013383
:10186C007B623B681A687B6A22FA03F3002B7FF4D5
:10187C00AFAE00BF00BF2C37BD4680BC704700BF69
:10188C000000321000003110000022100000211066
:10189C000000121000001110001002400000014066
:1018AC0000080140000C0140001001400004014000
:1018BC0080B483B000AF78600B467B8013467B709E
:1018CC007B78002B03D07A887B681A6103E07B88D5
:1018DC001A047B681A6100BF0C37BD4680BC704788
:1018EC0080B485B000AF78600B467B807B68DB688A
:1018FC00FB607A88FB6813401A04FB68D9437B8829
:10190C000B401A437B681A6100BF1437BD4680BC7C
:10191C007047000080B586B000AF78607B68002B04
:10192C0001D101236CE27B681B6803F00103002BDF
:10193C0000F08780924B5B6803F00C03042B0CD0F7
:10194C008F4B5B6803F00C03082B12D18C4B5B683C
:10195C0003F48033B3F5803F0BD1894B1B6803F440
:10196C000033002B6CD07B685B68002B68D10123A3
:10197C0046E27B685B68B3F5803F06D1804B1B6801
:10198C007F4A43F4803313602EE07B685B68002B46
:10199C000CD17B4B1B687A4A23F480331360784B51
:1019AC001B68774A23F4802313601DE07B685B6817
:1019BC00B3F5A02F0CD1724B1B68714A43F48023F2
:1019CC0013606F4B1B686E4A43F4803313600BE05B
:1019DC006B4B1B686A4A23F480331360684B1B689B
:1019EC00674A23F4802313607B685B68002B13D059
:1019FC00FFF7CCFC386108E0FFF7C8FC02463B69F6
:101A0C00D31A642B01D90323FAE15D4B1B6803F451
:101A1C000033002BF0D014E0FFF7B8FC386108E07D
:101A2C00FFF7B4FC02463B69D31A642B01D903239C
:101A3C00E6E1534B1B6803F40033002BF0D100E0BC
:101A4C0000BF7B681B6803F00203002B63D04C4B78
:101A5C005B6803F00C03002B0BD0494B5B6803F065
:101A6C000C03082B1CD1464B5B6803F48033002B12
:101A7C0016D1434B1B6803F00203002B05D07B6887
:101A8C001B69012B01D00123BAE13D4B1B6823F0EC
:101A9C00F8027B685B69DB00394913430B603AE061
:101AAC007B681B69002B20D0364B01221A60FFF794
:101ABC006DFC386108E0FFF769FC02463B69D31AFC
:101ACC00022B01D903239BE12D4B1B6803F002036E
:101ADC00002BF0D02A4B1B6823F0F8027B685B6963
:101AEC00DB00274913430B6015E0264B00221A60DC
:101AFC00FFF74CFC386108E0FFF748FC02463B69F5
:101B0C00D31A022B01D903237AE11D4B1B6803F076
:101B1C000203002BF0D17B681B6803F00803002B39
:101B2C003AD07B689B69002B19D0174B01221A60A5
:101B3C00FFF72CFC386108E0FFF728FC02463B69F4
:101B4C00D31A022B01D903235AE10D4B5B6A03F024
:101B5C000203002BF0D0012000F09AFA1CE00A4B93
:101B6C0000221A60FFF712FC38610FE0FFF70EFC41
:101B7C0002463B69D31A022B08D9032340E100BF6C
:101B8C000010024000004242800442429E4B5B6ABD
:101B9C0003F00203002BE9D17B681B6803F00403FC
:101BAC00002B00F0A6800023FB75974BDB6903F03C
:101BBC008053002B0DD1944BDB69934A43F0805337
:101BCC00D361914BDB6903F08053BB60BB6801238D
:101BDC00FB758E4B1B6803F48073002B18D18B4B59
:101BEC001B688A4A43F480731360FFF7CFFB38619C
:101BFC0008E0FFF7CBFB02463B69D31A642B01D9F3
:101C0C000323FDE0814B1B6803F48073002BF0D0A1
:101C1C007B68DB68012B06D17B4B1B6A7A4A43F04D
:101C2C00010313622DE07B68DB68002B0CD1764B33
:101C3C001B6A754A23F001031362734B1B6A724AC9
:101C4C0023F0040313621CE07B68DB68052B0CD1CA
:101C5C006D4B1B6A6C4A43F0040313626A4B1B6A9C
:101C6C00694A43F0010313620BE0674B1B6A664A37
:101C7C0023F001031362644B1B6A634A23F00403D1
:101C8C0013627B68DB68002B15D0FFF77FFB386194
:101C9C000AE0FFF77BFB02463B69D31A41F288321C
:101CAC00934201D90323ABE0574B1B6A03F00203A9
:101CBC00002BEED014E0FFF769FB38610AE0FFF768
:101CCC0065FB02463B69D31A41F28832934201D933
:101CDC00032395E04C4B1B6A03F00203002BEED15F
:101CEC00FB7D012B05D1484BDB69474A23F0805320
:101CFC00D3617B68DB69002B00F08180424B5B6811
:101D0C0003F00C03082B61D07B68DB69022B46D1F6
:101D1C003F4B00221A60FFF739FB386108E0FFF7F0
:101D2C0035FB02463B69D31A022B01D9032367E02A
:101D3C00354B1B6803F00073002BF0D17B681B6ADA
:101D4C00B3F5803F08D1304B5B6823F400327B68DD
:101D5C009B682D4913434B602B4B5B6823F4741227
:101D6C007B68196A7B685B6A0B43274913434B609A
:101D7C00274B01221A60FFF709FB386108E0FFF7D7
:101D8C0005FB02463B69D31A022B01D9032337E02A
:101D9C001D4B1B6803F00073002BF0D02FE01C4B85
:101DAC0000221A60FFF7F2FA386108E0FFF7EEFA4A
:101DBC0002463B69D31A022B01D9032320E0124BB4
:101DCC001B6803F00073002BF0D118E07B68DB6913
:101DDC00012B01D1012313E00B4B5B68FB60FB680B
:101DEC0003F480327B681B6A9A4206D1FB6803F4C9
:101DFC0070127B685B6A9A4201D0012300E00023D9
:101E0C0018461837BD4680BD0010024000700040D7
:101E1C006000424280B584B000AF786039607B6866
:101E2C00002B01D10123D0E06A4B1B6803F00703A0
:101E3C003A689A4210D9674B1B6823F00702654930
:101E4C003B6813430B60634B1B6803F007033A6852
:101E5C009A4201D00123B8E07B681B6803F00203AF
:101E6C00002B20D07B681B6803F00403002B05D0EB
:101E7C00594B5B68584A43F4E06353607B681B68BA
:101E8C0003F00803002B05D0534B5B68524A43F414
:101E9C0060535360504B5B6823F0F0027B689B6887
:101EAC004D4913434B607B681B6803F00103002B07
:101EBC0040D07B685B68012B07D1474B1B6803F450
:101ECC000033002B15D101237FE07B685B68022B6C
:101EDC0007D1414B1B6803F00073002B09D1012380
:101EEC0073E03D4B1B6803F00203002B01D101236F
:101EFC006BE0394B5B6823F003027B685B68364907
:101F0C0013434B60FFF742FAF8600AE0FFF73EFA22
:101F1C000246FB68D31A41F28832934201D903235B
:101F2C0053E02D4B5B6803F00C027B685B689B00F5
:101F3C009A42EBD1274B1B6803F007033A689A428D
:101F4C0010D2244B1B6823F0070222493B68134331
:101F5C000B60204B1B6803F007033A689A4201D0D0
:101F6C00012332E07B681B6803F00403002B08D0CC
:101F7C00194B5B6823F4E0627B68DB6816491343FA
:101F8C004B607B681B6803F00803002B09D0124BD5
:101F9C005B6823F460527B681B69DB000E491343BA
:101FAC004B6000F021F802460B4B5B681B0903F0F9
:101FBC000F030A49CB5C22FA03F3094A1360094B5D
:101FCC001B681846FFF7A0F9002318461037BD46CA
:101FDC0080BD00BF002002400010024030290008E4
:101FEC00000000200400002080B487B000AF002364
:101FFC00FB600023BB6000237B6100237B6000231C
:10200C003B611E4B5B68FB60FB6803F00C03042B0D
:10201C0002D0082B03D027E0194B3B6127E0FB686B
:10202C009B0C03F00F03174AD35C7B60FB6803F433
:10203C008033002B10D0114B5B685B0C03F0010359
:10204C00114AD35CBB607B680D4A02FB03F2BB6890
:10205C00B2FBF3F37B6104E07B680C4A02FB03F3F5
:10206C007B617B693B6102E0054B3B6100BF3B69D7
:10207C0018461C37BD4680BC704700BF001002409C
:10208C0000127A00402900085029000800093D0080
:10209C0080B485B000AF78600A4B1B680A4AA2FB7B
:1020AC0003235B0A7A6802FB03F3FB6000BFFB6847
:1020BC005A1EFA60002BF9D100BF00BF1437BD4681
:1020CC0080BC704700000020D34D621080B582B0F8
:1020DC0000AF78607B68002B01D1012341E07B6865
:1020EC0093F83D30DBB2002B06D17B68002283F8DD
:1020FC003C207868FFF770F87B68022283F83D205B
:10210C007B681A687B6804331946104600F06EFA37
:10211C007B68012283F846207B68012283F83E20ED
:10212C007B68012283F83F207B68012283F84020E2
:10213C007B68012283F841207B68012283F84220CE
:10214C007B68012283F843207B68012283F84420BA
:10215C007B68012283F845207B68012283F83D20AF
:10216C00002318460837BD4680BD000080B485B0FA
:10217C0000AF78607B6893F83D30DBB2012B01D067
:10218C00012335E07B68022283F83D207B681B68C5
:10219C00DA687B681B6842F00102DA607B681B68B6
:1021AC00164A934209D07B681B68B3F1804F04D068
:1021BC007B681B68124A934211D17B681B689B6831
:1021CC0003F00703FB60FB68062B10D07B681B68D1
:1021DC001A687B681B6842F001021A6007E07B6892
:1021EC001B681A687B681B6842F001021A600023A6
:1021FC0018461437BD4680BC704700BF002C014008
:10220C000004004080B582B000AF78607B681B682A
:10221C001B6903F00203022B22D17B681B68DB686D
:10222C0003F00203022B1BD17B681B686FF00202C8
:10223C001A617B6801221A777B681B689B6903F023
:10224C000303002B03D0786800F0B4F905E078683C
:10225C0000F0A7F9786800F0B6F97B6800221A77CD
:10226C007B681B681B6903F00403042B22D17B6879
:10227C001B68DB6803F00403042B1BD17B681B6811
:10228C006FF004021A617B6802221A777B681B6864
:10229C009B6903F44073002B03D0786800F08AF933
:1022AC0005E0786800F07DF9786800F08CF97B68BF
:1022BC0000221A777B681B681B6903F00803082B44
:1022CC0022D17B681B68DB6803F00803082B1BD149
:1022DC007B681B686FF008021A617B6804221A770E
:1022EC007B681B68DB6903F00303002B03D0786861
:1022FC0000F060F905E0786800F053F9786800F0B8
:10230C0062F97B6800221A777B681B681B6903F0F3
:10231C001003102B22D17B681B68DB6803F01003C1
:10232C00102B1BD17B681B686FF010021A617B6845
:10233C0008221A777B681B68DB6903F44073002B57
:10234C0003D0786800F036F905E0786800F029F9D8
:10235C00786800F038F97B6800221A777B681B6874
:10236C001B6903F00103012B0ED17B681B68DB6832
:10237C0003F00103012B07D17B681B686FF001028E
:10238C001A617868FEF740FE7B681B681B6903F0D6
:10239C008003802B0ED17B681B68DB6803F0800305
:1023AC00802B07D17B681B686FF080021A617868FC
:1023BC0000F06BFA7B681B681B6903F04003402B31
:1023CC000ED17B681B68DB6803F04003402B07D100
:1023DC007B681B686FF040021A61786800F0FCF8AB
:1023EC007B681B681B6903F02003202B0ED17B68D4
:1023FC001B68DB6803F02003202B07D17B681B686C
:10240C006FF020021A61786800F036FA00BF0837C6
:10241C00BD4680BD80B584B000AF786039600023C4
:10242C00FB737B6893F83C30012B01D10223B4E0A1
:10243C007B68012283F83C207B68022283F83D20D4
:10244C007B681B689B68BB60BB6823F07703BB6031
:10245C00BB6823F47F43BB607B681B68BA689A60D7
:10246C003B681B68B3F5005F3ED0B3F5005F00F22C
:10247C008780B3F5805F00F08680B3F5805F7FD8EE
:10248C00702B1AD0702B7BD8602B50D0602B77D848
:10249C00502B3CD0502B73D8402B58D0402B6FD89E
:1024AC00302B64D0302B6BD8202B60D0202B67D8EE
:1024BC00002B5CD0102B5AD062E07B6818683B680C
:1024CC0099683B685A683B68DB6800F05EF97B688A
:1024DC001B689B68BB60BB6843F07703BB607B6881
:1024EC001B68BA689A604FE07B6818683B6899680B
:1024FC003B685A683B68DB6800F047F97B681B68EF
:10250C009A687B681B6842F480429A603CE07B6866
:10251C0018683B6859683B68DB681A4600F0BEF8DF
:10252C007B681B685021184600F015F92CE07B687D
:10253C0018683B6859683B68DB681A4600F0DCF8A1
:10254C007B681B686021184600F005F91CE07B686D
:10255C0018683B6859683B68DB681A4600F09EF8BF
:10256C007B681B684021184600F0F5F80CE07B688E
:10257C001A683B681B681946104600F0ECF803E03B
:10258C000123FB7300E000BF7B68012283F83D2030
:10259C007B68002283F83C20FB7B18461037BD4635
:1025AC0080BD80B483B000AF786000BF0C37BD46EF
:1025BC0080BC704780B483B000AF786000BF0C372C
:1025CC00BD4680BC704780B483B000AF786000BF5C
:1025DC000C37BD4680BC704780B483B000AF7860C8
:1025EC0000BF0C37BD4680BC7047000080B485B07E
:1025FC0000AF786039607B681B68FB607B68254A9C
:10260C00934207D07B68B3F1804F03D07B68224A9A
:10261C00934208D1FB6823F07003FB603B685B6856
:10262C00FA681343FB607B681A4A934207D07B68B5
:10263C00B3F1804F03D07B68174A934208D1FB68F3
:10264C0023F44073FB603B68DB68FA681343FB6060
:10265C00FB6823F080023B685B691343FB607B687B
:10266C00FA681A603B689A687B68DA623B681A6899
:10267C007B689A627B68074A934203D13B681A696C
:10268C007B681A637B6801225A6100BF1437BD4610
:10269C0080BC7047002C01400004004080B487B01F
:1026AC0000AFF860B9607A60FB681B6A7B61FB68FD
:1026BC001B6A23F00102FB681A62FB689B693B6191
:1026CC003B6923F0F0033B617B681B013A691343C0
:1026DC003B617B6923F00A037B617A69BB68134316
:1026EC007B61FB683A699A61FB687A691A6200BF80
:1026FC001C37BD4680BC704780B487B000AFF86013
:10270C00B9607A60FB681B6A7B61FB681B6A23F00B
:10271C001002FB681A62FB689B693B613B6923F4FE
:10272C0070433B617B681B033A6913433B617B69D4
:10273C0023F0A0037B61BB681B017A6913437B61A7
:10274C00FB683A699A61FB687A691A6200BF1C37A8
:10275C00BD4680BC704780B485B000AF78603960EE
:10276C007B689B68FB60FB6823F07003FB603A6836
:10277C00FB68134343F00703FB607B68FA689A60BD
:10278C0000BF1437BD4680BC704780B487B000AF23
:10279C00F860B9607A603B60FB689B687B617B6921
:1027AC0023F47F437B613B681A027B681A43BB6846
:1027BC0013437A6913437B61FB687A699A6000BFA3
:1027CC001C37BD4680BC704780B485B000AF7860C4
:1027DC0039607B6893F83C30012B01D1022341E036
:1027EC007B68012283F83C207B68022283F83D2021
:1027FC007B681B685B68FB607B681B689B68BB60C5
:10280C00FB6823F07003FB603B681B68FA6813439A
:10281C00FB607B681B68FA685A607B681B68144A0B
:10282C00934209D07B681B68B3F1804F04D07B685E
:10283C001B68104A93420CD1BB6823F08003BB6029
:10284C003B685B68BA681343BB607B681B68BA68FB
:10285C009A607B68012283F83D207B68002283F814
:10286C003C20002318461437BD4680BC704700BF7F
:10287C00002C01400004004080B483B000AF7860AD
:10288C0000BF0C37BD4680BC704780B483B000AF2E
:10289C00786000BF0C37BD4680BC704770B5002611
:1028AC000C4D0D4C641BA410A64209D100F022F86B
:1028BC0000260A4D0A4C641BA410A64205D170BD1B
:1028CC0055F8043B98470136EEE755F8043B98471A
:1028DC000136F2E75429000854290008542900084D
:1028EC005829000803460244934200D1704703F86C
:1028FC00011BF9E7F8B500BFF8BC08BC9E46704751
:0C290C00F8B500BFF8BC08BC9E46704740
:1029180001000000020000000300000004000000A5
:102928000106030405060708000000000000000077
:10293800010203040607080902030405060708093B
:0C2948000A0B0C0D0E0F10100102000015
:042954003101000845
:042958000D01000865
:0C295C000024F400100000000100000046
:040000050800129D40
:00000001FF
